:1000000000000120B5020000DD020000DF02000058
:10001000E1020000E3020000E50200000000000031
:10002000000000000000000000000000E7020000E7
:10003000E902000000000000EB020000ED020000F9
:10004000EF020000EF020000011B0000EF020000C1
:10005000EF020000EF020000EF020000611B000051
:1000600021210000EF020000EF020000EF0200007B
:10007000EF020000EF020000EF020000EF020000BC
:10008000EF020000EF020000EF020000EF020000AC
:10009000EF020000EF020000EF020000EF0200009C
:1000A000EF020000EF020000EF020000EF0200008C
:1000B000EF020000EF02000000000000000000005E
:1000C000EF020000EF020000EF020000EF0200006C
:1000D000EF020000EF020000EF020000000000004D
:1000E0000000000000000000000000000000000010
:1000F0000000000000000000000000000000000000
:1001000000000000000000000000000000000000EF
:1001100000000000000000000000000000000000DF
:1001200000000000000000000000000000000000CF
:1001300000000000000000000000000000000000BF
:1001400000000000000000000000000000000000AF
:10015000000000000000000000000000000000009F
:10016000000000000000000000000000000000008F
:10017000000000000000000000000000000000007F
:10018000000000000000000000000000000000006F
:10019000000000000000000000000000000000005F
:1001A000000000000000000000000000000000004F
:1001B000000000000000000000000000000000003F
:1001C000000000000000000000000000000000002F
:1001D000000000000000000000000000000000001F
:1001E000000000000000000000000000000000000F
:1001F00000000000000000000000000000000000FF
:1002000010B5054C237833B9044B13B10448AFF350
:1002100000800123237010BDF801002000000000C1
:10022000A834000008B5034B1BB103490348AFF3E2
:10023000008008BD00000000FC010020A834000080
:10024000154B002B08BF134B9D46A3F5803A0021A8
:100250008B460F461348144A121A02F06EFF0F4BDA
:10026000002B00D098470E4B002B00D09847002061
:10027000002104000D000D48002802D00C48AFF307
:10028000008002F00BFF2000290002F0E7FC02F0E2
:10029000F1FE00BF00000800000001200000000087
:1002A00000000000F8010020C0080020000000004D
:1002B000000000000649074A074B9B1A03DD043B78
:1002C000C858D050FBDC02F0F5FCFFF7B9FF000086
:1002D0001835000000000020F8010020FEE7FEE7CE
:1002E000FEE7FEE7FEE7FEE7FEE7FEE7FEE7FEE7E6
:1002F000F0B595B0002415460F4608461E4601F09D
:100300003FFA384623460895082205A91A9D099602
:100310000D950A948DF82C400C9401F08BFA9DF801
:1003200014308DF81140DDE9061003F00302012AB4
:10033000CDE9020127D0022A04D0384601F024FA80
:1003400015B0F0BDBDF81650C3F3C2038DF81030E0
:10035000AD090826082D2C4628BF0824334622461E
:100360000EA9384601F066FA2D1B214608AB02AAF9
:100370000EA8264400F0AAFC002DEBD1384601F06F
:1003800003FA15B0F0BDBDF81460059DC6F38316E1
:10039000C3F3C204B2000EA9384608238DF81040FA
:1003A000C5F3952501F046FA08AB324628460EA95A
:1003B000009302AB00F0E4FB384601F0E5F915B01C
:1003C000F0BD00BF014B01221A7070475802002097
:1003D000704700BF00B583B0044B0093044A40232C
:1003E000FFF786FF03B05DF804FB00BFF5030000D4
:1003F0001802002038B50E480E4D03780E4CEB5C09
:100400000025D2B2257053B90C3002F0CBF858B9A0
:100410000A4B1B7813B12378002BFCD038BD043075
:1004200002F004FB0028F3D000F0FEFCF0E700BF70
:1004300000000020BC080020580200201402002008
:1004400070B51348134A0378D35C88B0DBB90C301D
:1004500002F042F8104D0FCD6C460FC495E80F0026
:1004600008AD062645F8206D84E80F0029460022D5
:10047000074801F099FA08B100F0D6FC074B0022BA
:100480001A7008B070BD043002F068FAE2E700BFED
:1004900000000020BC080020903100001402002061
:1004A00070B50D4D0FCD88B06C460FC495E80F00A8
:1004B00008AD062645F8206D84E80F002946074A56
:1004C000074801F071FA08B100F0AEFC054B0122BB
:1004D0001A7008B070BD00BF90310000C503000065
:1004E000000000201402002008B5FFF7D9FF042106
:1004F000034800F0FBFA034B01225A7108BD00BF0C
:10050000EC34000014000020F0B5324C85B004F546
:10051000836000F005FD04F2144000F001FDD4E911
:10052000013703EA0702D01C04EB800114F8200015
:1005300010F0040044D003F1020C0E7806F003061C
:10054000012E654635D0022E02F1030621D004EBC0
:1005500086010028F1D104EB82020133D2680192B6
:100560003B4004EB830302F00302012ADE6829D03A
:10057000022A23D1BDF806309B090333360C05EB64
:100580009305154800F0D8FC00B16560304605B011
:10059000F0BD4B880CEB931307EA0302D11C03F167
:1005A000020C14F82100654604EB810100F0040000
:1005B000CFE70B88C3F383136344EDE70026E0E73E
:1005C0009D1CC8E7BDF80430C3F38313360C1D44EB
:1005D000D7E700BF2C030020400700200B4B0C483E
:1005E00010B50022FF21C3F818249960C3E9002246
:1005F000C3F8142483F8202401F07EF8044610B9CF
:10060000044801F07BF9204610BD00BF2C030020F8
:10061000FC340000D031000021B9124B03EBC000C4
:1006200000687047104A0F49521AD20815D030B4EA
:100630000E4D2B88834212D0002303E035F823406F
:10064000844205D001339A42F8D1002030BC704773
:1006500001EBC300006830BC704710467047084685
:10066000F8E700BFAC340000EC340000F8010020D3
:10067000094B013903EBC00003290BD8DFE801F077
:1006800002080604022070474079704700797047DD
:100690000420704700207047AC3400002DE9F84377
:1006A000DFF8D890074600208846D9F8084000F0C7
:1006B00003FCD9E90132D9F80060134401339B1BD4
:1006C000012B56D809F21C450121284600F010FCE8
:1006D000FFF71AFF0146284600F00AFCD9E901326B
:1006E000D9F80010134401335B1A012BECD90A40EE
:1006F000033205230231002049F82230C9F80010E6
:1007000000F0E2FB00211C4800F0E8FB80F3100041
:10071000731C234009EB830300043440033440EA94
:100720001740D86019F8243067F3C50309F824305E
:1007300039F824306FF3891329F8243059F824202C
:1007400068F39F221346012161F301036FF38203D3
:1007500049F8242009F8243099F820341BB906E020
:1007600000F00EF818B1D9E900329A42F8D1BDE88C
:10077000F8833146BBE700BF480700202C03002068
:100780002DE9F047914C002384B0C4F81834BFF32E
:100790004F8FD4E9015605EA0602D31C04EB83010E
:1007A00014F82330580719D527680B7803F0030392
:1007B000012B43D0022B03D14B88023505EB931557
:1007C00006EA0502D4F81804D31C04EB830128B907
:1007D000AF4239D914F823305B07E6D404EB820228
:1007E0006B1CD2680192334004EB830302F00302D6
:1007F000DB680293022A05F1020700F08980012AD2
:1008000026D0D4F810543DB12B6828469B689847F1
:10081000EB681D68002DF7D16D486E4B6E49C01A0C
:10082000C008000440F00200FFF738FFD4E90030B0
:10083000C01A18BF012004B0BDE8F0870B8802354C
:10084000C3F383131D44BBE7676004B0BDE8F087C2
:10085000BDF804206148C2F38313062B28BF06238A
:1008600063F3891202339900ADF8042000F046FFCB
:1008700080460028C5D000F083FF0023082201A98C
:10088000404600F0A3FFBDF8043013F4707F00F081
:100890009B806FF0010AAAEB050A082506EA07010A
:1008A00003312B46042204EB8101404600F08EFF09
:1008B000BDF8043007F101090AEB0902C3F3831301
:1008C00093424F4605F10405E8D8D4F81834002BBC
:1008D00064D1D4F8105465B1EB685A792846414682
:1008E000002A57D02B681B689847EB681D68002DBD
:1008F000F2D1404600F048FF002000F0DDFAD4F8C5
:1009000018340BB9C4F80490002000F0DDFA8DE72C
:10091000BDF8063031484FEA93194D46502D28BF97
:10092000502565F38F1305F10801ADF8063000F08E
:10093000E5FE804600283FF464AF26EA070A0AF184
:10094000010A00F01DFF4FEA8A0A0023082201A9CC
:10095000404600F03BFF55452BD9EBB2BAF1000FF2
:1009600020D006EA0701A3EB0A03033104EB81015F
:10097000DDB252460823404600F028FF2A460AF11D
:1009800008031749404600F021FF09F1030907EB6E
:1009900099099AE71D68002D9ED1AAE7404600F00C
:1009A000F3FE43E72A4608230D49404600F00EFFB8
:1009B000EBE706EA0701033104EB81012A4608232D
:1009C000404600F003FFE0E7B9467EE72C03002035
:1009D000DC340000AC340000DC310000FC340000EA
:1009E000380300202DE9F047DFF8E4A00746002097
:1009F00091468846DAF8084000F05EFADAE90132FA
:100A0000DAF80060134401339B1B022B5CD80AF216
:100A10001C450121284600F06BFAFFF775FD0146E1
:100A2000284600F065FADAE90132DAF800101344DA
:100A300001335B1A022BECD90A4003320331452300
:100A400000204AF82230CAF8001000F03DFAB31C2A
:100A500023400AEB830300211C48C3F80C9000F0EC
:100A60003DFA80F31000731C23400AEB830300045B
:100A70003440033440EA1740D8601AF8243067F352
:100A8000C5030AF824303AF82430012161F38913B0
:100A90002AF824305AF8242068F39F22134661F381
:100AA00001036FF382034AF824200AF824309AF8ED
:100AB00020341BB906E0FFF763FE18B1DAE9003213
:100AC0009A42F8D1BDE8F0873146B5E748070020E3
:100AD0002C030020044BD3E900239A4201D0FFF7F6
:100AE0004FBE0020704700BF2C03002030B4184DCB
:100AF000D5F8104400215CB1E3681A798A4204D128
:100B000016E0DB681A798A4212D01B68002BF8D1F4
:100B1000C3681971D5F8103493B1DA68C3681268E4
:100B20001A60D5F81034DB68186030BC084670478E
:100B300001310A29DFD14FF0FF31084630BC704740
:100B4000C5F81004C2681360084630BC704700BF87
:100B50002C03002038B5094BD3F81044012583F845
:100B600020544CB1E3685D71236820465B68984768
:100B7000E3681C68002CF5D138BD00BF2C030020B1
:100B80002DE9F04784B01D460C9C002394F80C809E
:100B90002373EB8881460E461746002B40D1297AF5
:100BA00005290ED06B7AA88873BB404B53F821A05F
:100BB0000021FFF731FD524603463D49204600F033
:100BC00027FA062F09D8DFE807F0046A4249525D88
:100BD00033004946204600F01BFA2B7A052B05D03E
:100BE0006B7A5BB93349204600F012FA204600F0D8
:100BF00003FA84F80C8004B0BDE8F0872E4A2F4930
:100C0000204600F005FAEDE7FFF732FD2C4B2B49AB
:100C100053F82020204600F0FBF9297AA888C4E781
:100C2000254A00922749284A204600F0F1F9B6E704
:100C3000D6E90410D6E900230390D6E90207029111
:100C4000CDE900074946204600F0E2F9C5E74946EC
:100C5000D6E90023204600F0DBF9BEE7B168D6E90B
:100C6000002320460091494600F0D2F9B5E7D6E9C5
:100C70000201D6E90023019100904946204600F088
:100C8000C7F9AAE7D6E90371B068D6E90023029153
:100C9000CDE900074946204600F0BAF99DE73268E1
:100CA0004946204600F0B4F997E700BF68320000DB
:100CB00058320000643200004C3200005432000010
:100CC000F4310000343200002C320000082900D931
:100CD00070472DE9F04F1D46904600232A7B2B7369
:100CE00085B0B8F80630039207460E46002B78D13F
:100CF00098F80810052911D098F80930B8F80400C0
:100D0000002B60D13B4B53F821400021FFF784FCBE
:100D1000224603463849284600F07AF9DFF8F8B051
:100D2000DFF8F890002405E03A5D013400F070F936
:100D3000082C09D0A64249462846F5D85946013420
:100D400000F066F9082CF5D12C49DFF8D490DFF8D3
:100D5000D4B0284600F05CF9002411E017F804A094
:100D600002F0C0F950445946437813F0970F14BF6E
:100D700052462E222846013400F04AF9082C08D0A9
:100D8000A64249462846E9D8013400F041F9082C2A
:100D9000F6D198F80830052B02D098F8093063B9DD
:100DA0001749284600F034F9284600F025F99DF847
:100DB0000C302B7305B0BDE8F08F124A124928465B
:100DC00000F026F9ECE7FFF753FC104B0E4953F8FF
:100DD0002020284600F01CF998F80810B8F8040004
:100DE00090E7084A00920A490A4A284600F010F99A
:100DF0007EE700BF68320000583200002432000055
:100E0000643200004C32000054320000F431000023
:100E1000343200002C320000203200001832000072
:100E2000603200002832000000B585B00023039036
:100E3000194601AA44F20100CDE9013300F004F89B
:100E400005B05DF804FB00BF10B572B6FFF782FE77
:100E5000FFF740FE0028FBD1104B114C1149E41A5A
:100E6000E408240444F00100FFF718FC0E4B1B6853
:100E7000DB0700D500BE44F002000C49FFF70EFC72
:100E8000BFF34F8F0A490B4BCA6802F4E062134369
:100E9000CB60BFF34F8F00BFFDE700BFAC34000055
:100EA000DC340000D4320000F0ED00E0E03200005D
:100EB00000ED00E00400FA0572B6024A136801333F
:100EC00013607047E8070020034A1368013B136072
:100ED00003B962B6704700BFE807002050E8002F52
:100EE0000B4640E8003C9CF0000FF7D110467047DD
:100EF00050E8003F03EB010240E8002C9CF0000F9B
:100F0000F6D11046704700BF50E8003FA3EB010246
:100F100040E8002C9CF0000FF6D11046704700BF4F
:100F2000012350E8002F42EA030C40E800C191F091
:100F3000000FF6D160467047002350E800CF0CEA5E
:100F4000030240E8002191F0000FF6D1604670479F
:100F5000B8B130B4D0E90112521A0468D2B2531EAB
:100F60002160DBB242B101680A685C1E551C0D604D
:100F70001370E3B2FF2BF6D103680020187130BC68
:100F800070470E20704700BF38B504460020FFF7B9
:100F900093FFD4E900311A688A4215D9511E1960AD
:100FA0002168A3680868258A12F8012CE4681B1AD6
:100FB0000879DBB2984205FB024400D20B71002095
:100FC000FFF782FF204638BD0024F8E738B5054614
:100FD00000200C46FFF770FF2A681368591C116047
:100FE000E9682A8A641AB4FBF2F41C700020BDE898
:100FF0003840FFF769BF00BF826842B110B50446B0
:1010000043690168006998470023A36010BD7047D9
:101010000EB400B582B0039929B102AA04AB42F81C
:10102000043D00F08BF802B05DF804EB03B07047AC
:101030002DE9F84F88469045174605461E46DDE9DE
:101040000AB175D343464FF00109B3FBF7F39F4252
:1010500009F10109F9D9B14538BFB14611F0010ACA
:10106000AA6802D1BBF1000F43D1012402E0013E86
:1010700007FB04F4012EFAD8B8FBF4F18F42F7D93C
:101080002D4E05E0B4FBF7F4A4B1B8FBF4F1AA6867
:10109000705C531CAB602B689854D5E901329A42BE
:1010A00004FB1188EED32846FFF7A6FFB4FBF7F444
:1010B000002CEAD1BAF1000F15D0BBF1000F12D00D
:1010C000CB4510D92024AB682A68591CA960D45498
:1010D000D5E901329A420BF1FF3B06D2BBF1000F7A
:1010E00001D0CB45EFD1BDE8F88F2846FFF784FF4C
:1010F000F4E78B0717D42024CB45B6D92B68511CB5
:10110000A9609C54D5E901329A420BF1FF3B05D20C
:10111000BBF1000FA9D0CB45F0D1A6E72846FFF7D9
:101120006BFFAA68F4E7002E0CBF30242024E3E70D
:101130004FF001098FE700BFF0320000002900F0F6
:10114000F4812DE9F04F054685B092460C460B78A8
:10115000DFF8A0B501E0237893B1013483B1252BEA
:1011600015D0AA682968501CA8608B54D5E90132B3
:101170009A42F0D32846FFF73FFF2378002BECD1AB
:101180002B7B002B40F0148105B0BDE8F08F214689
:10119000002711F8012B2D2A00F0E180302A00F001
:1011A000E2802B2A00F0D2802A2A00F0E080A2F10F
:1011B0003006F3B2092B03D9B8E1A3F1300601469A
:1011C000084606EB860310F8012BA2F13004092C27
:1011D00002EB4303F1D92E2A00F0D5800023013120
:1011E00001E011F8012B02F0FB0068280C46F8D052
:1011F000253A532AAFD801A151F822F0BD130000BF
:10120000571100005711000057110000571100003E
:10121000571100005711000057110000571100002E
:10122000571100005711000057110000571100001E
:10123000571100005711000057110000571100000E
:1012400057110000571100005711000057110000FE
:1012500057110000571100005711000057110000EE
:1012600057110000571100005711000057110000DE
:1012700057110000571100005711000057110000CE
:1012800057110000571100005711000057110000BE
:1012900057110000571100005711000057110000AE
:1012A000571100005711000057110000571100009E
:1012B000571100005711000057110000571100008E
:1012C0005711000057110000D713000057110000FC
:1012D000571100005711000057110000571100006E
:1012E000571100005711000057110000571100005E
:1012F00057110000F11300001314000057110000F3
:10130000571100005711000057110000131400007E
:10131000571100005711000057110000571100002D
:10132000571100005711000063140000571100000E
:1013300057110000D71400005711000011150000CC
:101340005711000057110000D713000047F00407A1
:101350000C46214611F8012B2D2A7FF41FAF47F0D0
:1013600001070C46F5E747F002070C46F1E7DAF80B
:1013700000301A1DCAF8002062781E682E2A04F177
:1013800002007FF42BAF4A78A2F13003092B00F260
:101390005081002303EB830302EB430310F8012F7A
:1013A000A2F130010929A3F13003F3D9014616E770
:1013B000284605B0BDE8F04FFFF71EBEAB682A68AF
:1013C000591CA9604FF02501D154D5E901329A4248
:1013D000FFF4C1AECEE6DAF80020111DCAF8001005
:1013E00011682846CDE900671022FFF721FEB2E61A
:1013F000DAF80020131DCAF80030AB6829681278AB
:10140000581CA860CA54D5E901329A42FFF4A3AE31
:10141000B0E6DAF80020111DCAF80010D2F80080FA
:1014200088EAE872A2EBE872092A4FF0010107DDB1
:10143000AF48A0FB0202D208092A01F10101F7DC42
:10144000994238BF1946894607F00202002E71D131
:101450002AB1002B00F04781FA0700F18D800026A9
:101460008AE0DAF80020131DCAF80030AB6829685A
:101470001768581C3022A860CA54D5E9012393424A
:1014800080F028812A68581C7821A860D154D5E9B9
:101490000123934280F019810F2F03D93A46120994
:1014A0000F2AFCD84FF0805603E036093FF453AEC4
:1014B000AB682968B7FBF6F2581CA8601BF802005D
:1014C000C854D5E90131994206FB1277EDD328467D
:1014D000FFF792FDE9E7DAF800301A1DCAF800209C
:1014E000D3F80080FB077ED54746A7EB080917F81D
:1014F000013B002B5DD0AA682968501CA8608B5462
:10150000D5E901329A42F0D32846FFF775FDECE7A2
:10151000DAF80020111DCAF8001011682846CDE93C
:1015200000670A22FFF784FD15E67047084600268B
:10153000214650E6B8F1000F01DB780700D5013EE7
:1015400002B1CBB1F90717D4002E88D0B14513D220
:1015500020220393A9682B68481CA8605A54D5E937
:101560000131994206F1FF365DD2002E00F0BD80B8
:10157000B145EFD1039B4E46B8F1000FC0F2928007
:101580007A070AD5A9684A1CAA602A682B205054F9
:10159000D5E90121914280F0928007F00302022AEE
:1015A0005FD0CDE9006741460A222846FFF740FD9B
:1015B000D1E54E457FF6CFAD202705E04E453FF4FF
:1015C000CAAD002E3FF4C7ADAB682A68591CA960AC
:1015D000D754D5E901329A4206F1FF36EED32846B8
:1015E000FFF70AFDEAE7B8F1000F24D0404601F00A
:1015F000ACFD0746BE4220D9FEB14FF0200902E003
:10160000BE421AD0CEB1AB682A68591CA96002F854
:101610000390D5E901329A4206F1FF36F0D328460D
:10162000FFF7EAFCECE728460292FFF7E5FC029A96
:101630009BE70146D2E54746DCE708F1FF3818F89A
:10164000013F002B3FF487ADAA682968501CA860B1
:101650008B54D5E901329A42F1D32846FFF7CCFCEE
:10166000EDE7002B9DD1002E3BD0B14599D20293DE
:1016700023464C469946AA682B68501C4FF030010F
:10168000A8609954D5E901329A4206F1FF3605D295
:101690002EB3B442EFD1029B4C4682E72846FFF7B7
:1016A000ABFCF5E7A9684A1CAA602A682D205054B3
:1016B000D5E901219142C8F10008FFF46EAF284638
:1016C0000293FFF799FC029B67E72846FFF794FC1B
:1016D000AB68E1E62846FFF78FFCAB68D2E6029BD9
:1016E0004C4600265DE71E4646E7039BB7E600BF73
:1016F000CDCCCCCCF0320000FFF72ABC2DE9F04174
:10170000058ACE1C043D2E440746B6FBF5F6FFF7CE
:101710003BFC78B3F6B24FF48073013E0446C580BB
:101720000760838027D08046002509E06379AE42B8
:1017300003F101036371C8F80000076080461AD006
:101740003846FFF721FC01350028EFD16679721E7B
:1017500014D02346013082421B68FBD11F684EB172
:10176000002523682146013538461C46FFF72EFC2C
:10177000AE42F6D100242046BDE8F0812768EFE7AD
:1017800004300121FFF7B4BBF8B501210446043051
:10179000FFF7BAFBC0B200B1F8BD6679721E12D075
:1017A0002346013082421B68FBD11F68002EF3D014
:1017B000002523682146013538461C46FFF706FC04
:1017C000AE42F6D1F8BD2768F2E700BF2DE9F84335
:1017D000C788467907FB06F6043E02EB030C044675
:1017E000664503F1040015468846B0FBF7F238BFA2
:1017F000F51A07FB120012B1013A2468FCD13E1A17
:10180000AE4228BF2E469DB14FF000090430AD1BFB
:101810002044324608EB090101F084FCAF42B14498
:1018200024683E464FF0000028BF2E46002DEDD123
:10183000BDE8F8832DE9F843C7884679154607FBCC
:1018400006F6043E05EB030C1A1D66450446884661
:10185000B2FBF7F038BFF51A07FB102110B10138C1
:101860002468FCD17E1AAE4228BF2E469DB14FF0AF
:10187000000904312144AD1B324608EB090001F098
:1018800051FCAF42B14424683E464FF0000128BFEE
:101890002E46002DEDD1BDE8F88300BF064A074B68
:1018A00010B5002414701C60BFF35F8F0449054815
:1018B00000F032F8204610BDF4070020F8070020A1
:1018C00000330000EC07002008B50020FFF7F4FA11
:1018D000F1EE103A23F09F03E1EE103ABFF35F8F71
:1018E000054B4022C3F884210020FFF7EDFA20BF0A
:1018F00040BF20BF08BD00BF00E100E082680023B8
:10190000936082681361826853618268D3608268E1
:10191000536082681360704701600B6843604A68D7
:10192000934204BF00234360704700BF034B187805
:1019300010B901221A70704785207047FC070020FB
:1019400030B585B00478094A094B45688DF80040E8
:10195000047AC068039053F8213001958DF808404F
:1019600052F821106846984705B030BD00080020A5
:101970000408002030B585B0047845688DF8004033
:10198000D0E90240064A074B039053F821300195F5
:101990008DF8084052F821106846984705B030BDD0
:1019A0000008002004080020F0B51A4B06781A4DF4
:1019B0000C6991F81DE045F826400746174803F8E2
:1019C00006E040F826200C4694460FCC89B06D46C0
:1019D0000FC594E80F0085E80F000496BEF1000FD4
:1019E0000BD0BCF1000F0E4A694607F1040008BF96
:1019F000002200F0D1FE09B0F0BDBCF1000F094A91
:101A0000694607F10C0008BF002200F093FC09B002
:101A1000F0BD00BFBC080020000800200408002022
:101A200041190000751900002DE9F84F154DDFF838
:101A30005890824600264FF0010803E0FFF744FA71
:101A4000A5431BD0F7B2002008FA07F4FFF734FAD9
:101A50002C424FF0000006F10106EFD0D9F800301B
:101A600014EA030BEAD11C4358468AF80070C9F8FF
:101A70000040FFF729FA5846BDE8F88F0420BDE87A
:101A8000F88F00BFFFFF0F0008080020B9B1B2B106
:101A90000123834010B4C3F3130494B10D4C2468A4
:101AA000234212D0C00000F1804303F5F833002038
:101AB000C3F81015C3F814255DF8044B70470E20C9
:101AC000704707205DF8044B704708205DF8044B11
:101AD000704700BF0808002001238340C3F31302AE
:101AE0001AB1054A1268134204D0044A0020C2F811
:101AF00004357047082070470808002000F00140B6
:101B0000014B1B68184700BF0C08002038B50C4B70
:101B1000984201D0002038BD00200D46FFF7CCF9D7
:101B2000084B1C7924B10020FFF7CEF9112038BDF5
:101B3000012220461D601A71FFF7C6F9204638BD04
:101B4000002000400C080020034B984203D1034BB7
:101B500000221A601A717047002000400C08002013
:101B60002DE9F041734B1A6888B0002A4CD1DFF898
:101B7000DC8198F82E30002B54D16F4B1A686AB173
:101B800000221A6008A81B680393022100F80C1DAC
:101B9000D8F80030039988F810209847674B1C68E4
:101BA000002C7CD1D8F814705FB34FF000450126AB
:101BB000B7FA87F101F146039B0003F1804202F579
:101BC000E042A3F58C73D2F800E083F0040025FA1C
:101BD00001F1C0F3800CDB0805A827EA0107BEF17C
:101BE000000F0CD01460126804928DF818308DF834
:101BF00014608DF819C0D8F80030049A9847002F67
:101C0000D6D108B0BDE8F0810022DFF840811A602B
:101C1000196898F82E3000910099F3B198F82F3098
:101C2000002B46D1464B1A68002AA6D00020186027
:101C300098F82D201968B8F81A30019191B28B42AA
:101C4000019C4DD861D03B4B3E4A002119601B6876
:101C500002930123029913608FE7D8F80C20D8F87B
:101C60000400B8F808108DF814300690ADF81C1078
:101C7000002A46D03448B8F81810C8F804200122C9
:101C8000C8F80C30A8F81A10A8F808100260D8F8A4
:101C9000003005A89847002388F82F3069E7002214
:101CA0001A601B680593059B88F8102008B0BDE8F2
:101CB000F081D8F80C30D8F80400B8F808108DF886
:101CC00014200690ADF81C10DBB1B8F81810C8F855
:101CD0000430C8F80C20A8F81A10A8F80810D6E7A5
:101CE000B8F80800184C5B1A9BB2D8F80410A8F892
:101CF0001A30C01A01EB4001C4F82C16C4F8302683
:101D0000A1E7002388F81030C1E7D8F80C3053B1B0
:101D10000D49A8F81A00012088F82F00C1F82C36C8
:101D2000C1F830268FE70122A8F81A3088F82F2052
:101D300089E700BF04710040107100401471004039
:101D40000071004004700040007000401408002042
:101D5000214B93F82C20002A3CD170B41F4C0578FD
:101D60001960C4F8F05545781D49C4F8F4556FF072
:101D700000451A74C678C4F8085383B00A6009682D
:101D8000184D019101992A60817883F82E602D68A1
:101D900015480095490183F82D205A6183F82F20BA
:101DA000C9B28022F5B2009E80F80713C0F88021E6
:101DB000022102600122C4F8041383F82C200DB123
:101DC000C4F80423054B01220020C3F8002503B00A
:101DD00070BC704708207047140800200070004055
:101DE000047100400071004000E100E0334A137CC0
:101DF000002B60D1F0B40C79012C4ED900F10C0508
:101E000002EB45031B7923B992F82D30013382F898
:101E10002D304B788E7891F800C04F791B01360237
:101E200006F4E06603F030033343CE780CF0030C85
:101E3000360306F4805643EA0C0333438E793F059C
:101E400007F48017360602EB450206F0807624047C
:101E50003B431B4D04F4E0243343234305EB0016BE
:101E6000CC79147100010C7A547100F18040C6F8ED
:101E7000183500F5E040CB790A7AC0F81425C0F88F
:101E800010350B79012B02D90020F0BC70470123DB
:101E9000C5F800350020F0BC704703F0FF05084B83
:101EA000C3F8005500F10C0502EB45030C791B79D2
:101EB000002BAED1A8E71120704700BF1408002006
:101EC00000700040044B054A93F82E00044B002894
:101ED0000CBF1046184670471408002004700040DC
:101EE00000700040F0B42D4A2D4B1224C2F8084374
:101EF0001D7C022D82B04BD01C7C012C24D093F889
:101F00002E405860022701250026C2F804731D7474
:101F1000DE6019816CB9234BC2F82C06C2F830166A
:101F20001C601B680193019B1560204602B0F0BC49
:101F3000704793F82D40C2F82C0630465983C2F8FA
:101F4000304602B0F0BC7047DC6834B10223112087
:101F5000C2F8043302B0F0BC704793F82E20D8606A
:101F600019836AB90F4A1368002BFCD00023136051
:101F700012680A4B0092009AC3F82C06C3F8301678
:101F8000064B02220020C3F8042302B0F0BC7047C5
:101F90001120C2F8044302B0F0BC7047007000404A
:101FA0001408002000710040F0B407793B4D7E001A
:101FB000F419A40005EB040C82B09CF80830002B47
:101FC00067D12A514A68CCF80420427972B19C4604
:101FD0009A0002F5A072046844F802C00133A458C4
:101FE00042790194DBB29A42019CF1D80468CB7823
:101FF000240B62B25B01002ADBB244DB02F16042D7
:1020000002F5614282F800330268120B42F3C40306
:1020100023F0604323F0030303F1604303F56143BE
:10202000012402F01F0204FA02F2C3F880211A60B0
:10203000D0F800C04B78DCF8042503F0030322F04D
:1020400003021343CCF80435D0F800C08B78DCF8D9
:10205000082503F0030322F003021343CCF80835EC
:1020600000680B78D0F810253E4422F00F0203F0F0
:102070000F0305EB86051343C0F8103500202C72C2
:1020800002B0F0BC7047064A04F00F0422441376F5
:10209000BAE7082002B0F0BC704700BF4408002037
:1020A000FCEC00E00368054A01211960037903EBA9
:1020B000430302EB830302221A7270474408002094
:1020C000F0B4076840F20115D7F800428D4024EAC9
:1020D0000504C7F80042056882B0D5F800429DF8B3
:1020E000186023434FF48034C5F800328C4056B951
:1020F0000368C3F80843036801F5A87143F8212079
:1021000002B0F0BC704701F150039B000568002647
:10211000EE50ED5803680195019DC3F80443EAE7CA
:102120002DE9F041114C124EDFF8488082B00025B5
:102130004FF480372368A4F5004007FA05F2002128
:10214000013580B253B1D6F804331A4206D021606B
:1021500023680193D8E90031019A9847042D04F1CE
:102160000404E7D102B0BDE8F08100BF4081004027
:10217000008000404408002030B56C4AD2F8043397
:1021800099058BB066D5D2F82431002B62D000239C
:10219000C2F82431D2F8243103934FF40171644B17
:1021A0000398C2F8081393F8291009B90121516066
:1021B0005E4902228DF81820D1F88024C1F88024CD
:1021C0009869D96809920022CDE90710C3E906226F
:1021D000D3E9001406A8A047544AD2F81C31BBB179
:1021E000534B186A5969884269D350480022C0F895
:1021F0001C21D0F81C010190019849B198688DF814
:10220000182008915A610790D3E9001206A8904758
:10221000464AD2F84431DBB10021454BC2F84411A3
:10222000D2F8440193F829100090009809B10121D7
:1022300011609A6962B10022586AD9689A610122D4
:10224000CDE907108DF8182006A8D3E900129047B1
:102250000BB030BD354AD2F804335B07BCD5D2F899
:102260000831002BB8D0324B996900293CD00021AD
:10227000C2F80811D2F8081104910499D868596A73
:10228000D2F8182542545A6A996901325A625A6A38
:102290008A42A1D1DA691968002A2ED0D8685D6A0D
:1022A0001C699A61079000220120DC60DA615A62A1
:1022B0008DF8180008955B6806A898478CE793F896
:1022C000280000F0FF0400288FD1C2F81C41D2F88A
:1022D0001C11029102999C68186A196A205C0131EC
:1022E0001962C2F81C0593E7C2F80811D2F8080178
:1022F00005900598D2F81825C9E793F8292012B956
:102300000A4A01205060094A4FF40170C2F80803DC
:10231000586ADA6808900024012007928DF81800A6
:102320005A689C6106A8904756E700BF002000400D
:10233000500800202DE9F041DFF8988107792C261C
:1023400006FB078682B096F82A30002B40F08F807B
:102350000D4604465C4900681646FFF7D7FB002887
:1023600040F081802B68591C0CD001224FF0A04115
:1023700002FA03F3C1F808352B6803F5E073032272
:1023800041F823206B685A1C06D003F5E0734FF028
:10239000A042002142F823102368AA69C3F824252B
:1023A000297D6B7D22680B43C2F86C35D5E900129C
:1023B0002368C3F81425C3F80C152B7D012B5AD0C4
:1023C0002C2303FB07F308EB030256602A6948F845
:1023D0000320002E34D022682B7F3C4D0021C2F810
:1023E0001C11D2F81C2100922268009EC2F84411F0
:1023F000D2F84411226801910199C2F8045321686E
:10240000090B4AB25B01002ADBB256DB02F16042E3
:1024100002F5614282F800332268120B42F3C403D2
:1024200023F0604323F0030303F1604303F56143AA
:1024300002F01F02012101FA02F2C3F880211A60A2
:102440002C23246803FB0783002204250121C4F800
:10245000005583F82A10C3E9062283F829205A611F
:1024600002B0BDE8F081112002B0BDE8F081082083
:1024700002B0BDE8F081AB68591C06D003F5E073EB
:102480004FF0A042002142F82310EB685A1C0DD0F7
:1024900001224FF0A04102FA03F3C1F80835EB68BE
:1024A00003F5E073032241F82320EB682268A96852
:1024B000C2F80835C2F8101582E7054A01F00F018D
:1024C0000A441376A8E700BF7921000080000200CB
:1024D000FCEC00E050080020F8B52F4D04790268AC
:1024E0002C2303FB045300215B68C2F8001583B161
:1024F00003682A4AC3F808230368294E1B0B5AB203
:102500005209203203F01F03012101FA03F346F8B8
:10251000223003684FF0FF32D3F80CC5D3F814759E
:10252000D3F80815D3F81065C3F81425C3F80C25A3
:1025300003689445C3F80825C3F8102506D00CF5A8
:10254000E07C4FF0A043022243F82C207B1C06D0F5
:1025500007F5E0774FF0A043022243F82720721CD2
:1025600006D006F5E0764FF0A043022243F826207D
:102570004B1C06D001F5E0714FF0A043022243F856
:1025800021200068FFF7E0FA2C2303FB045400230A
:1025900084F82A306360F8BD5008002084020200ED
:1025A00000E100E0F0B5314E05792C2303FB056313
:1025B00085B05C69002C53D11C62996083F8284077
:1025C0005A610268C2F81C41D2F81C1102680291DB
:1025D0000121029F91600268D3F808C0C2F81C4133
:1025E000D2F81C1101910199D3F820E0196A5F68B3
:1025F0001CF80EE001311962C2F81CE517B1204643
:1026000005B0F0BD1A6A5C690168944203D819E00C
:1026100093F828203ABBD1F81C21002AF8D0C1F841
:102620001C71D1F81C210392039AD3F820E01A6A96
:102630001CF80EE001321A62C1F81CE51A6AA242C7
:10264000E9D30168D1F81C31002BFBD00123CB600A
:1026500000202C2303FB056500236B6105B0F0BD52
:10266000112005B0F0BD0F20F3E700BF5008002097
:10267000F0B5474BD3F8242189B0002A54D000216B
:10268000C3F82411D3F82421029202228DF81020DD
:10269000029AD3F880043F4AC3F880040790D3F825
:1026A0003C05D3688DF81800C2E90611059311683E
:1026B000536804A89847364BD3F84421BAB1002098
:1026C000344AC3F84401D3F8444191690194019C10
:1026D00069B1D3F83C458DF81840D3689061012466
:1026E0000593116853688DF8104004A89847284B4B
:1026F000D3F82021B2B10021264AC3F82011D3F823
:10270000204150690094009C60B1D3F84C05936857
:102710008DF818008DF810105161059304A8D2E9C6
:102720000013984709B0F0BDD3F810110029C2D0AA
:10273000C3F81021D3F81011164803910399816949
:10274000D3F83C458C42B6D1C569C768D0E90016BC
:10275000E4B295B1D3F800C285612CF02005C261C6
:10276000C3F800520369C36001228DF81840059731
:102770008DF8102004A8B0479DE7012385618DF8EE
:10278000184005978DF8103004A8B04793E700BFB4
:10279000002000407C0800202DE9F04307796B4EB3
:1027A0004FEAC70808EB070306EB830385B093F8ED
:1027B0002030002B40F09E800D460446644900689E
:1027C0009146FFF7A3F9002840F090802B68591C30
:1027D0000CD001224FF0A04102FA03F3C1F80835F2
:1027E0002B6803F5E073032241F823206B685A1C21
:1027F00006D003F5E0734FF0A042002142F8231009
:102800002368AA69C3F82425297D6A7D23680A43C1
:10281000C3F86C25D5E900312268C2F80C35C2F83E
:1028200014152B7D012B69D008EB07029200B31819
:10283000C3F804902B69B350B9F1000F45D021685B
:102840002B7F444D0022C1F81021D1F810110091C6
:102850002168DDF800C0C1F82021D1F820110191D4
:102860002168DDF804C0C1F82421D1F824110291B7
:102870002168DDF808C0C1F84421D1F8441122686C
:1028800003910399C2F804532168090B4AB25B0112
:10289000002ADBB254DB02F1604202F5614282F8A9
:1028A00000332268120B42F3C40323F0604323F089
:1028B000030303F1604303F5614302F01F020121AA
:1028C00001FA02F2C3F880211A604744226806EB3D
:1028D000870600230124082186F82040C2F800154D
:1028E000C6E90633736105B0BDE8F083112005B079
:1028F000BDE8F083082005B0BDE8F083AB68591C43
:1029000006D003F5E0734FF0A042002142F82310F7
:10291000EB685A1C0DD001224FF0A04102FA03F3DC
:10292000C1F80835EB6803F5E073032241F8232072
:10293000EB682268A968C2F80835C2F8101573E779
:10294000054A01F00F010A441376AAE77C0800202B
:102950007126000010030200FCEC00E0F8B50679D7
:102960002F4C0268F500AB1904EB830300215B6870
:10297000C2F8001583B103682A4AC3F80823036824
:10298000294F1B0B5AB25209203203F01F030121B9
:1029900001FA03F347F8223003684FF0FF32D3F80F
:1029A0000CE5D3F814C5D3F80815D3F81075C3F89F
:1029B0000C25C3F8142503689645C3F80825C3F809
:1029C000102506D00EF5E07E4FF0A043022243F81A
:1029D0002E20BCF1FF3F06D00CF5E07C4FF0A04369
:1029E000022243F82C207A1C06D007F5E0774FF03E
:1029F000A043022243F827204B1C06D001F5E071CA
:102A00004FF0A043022243F82120354404EB850413
:102A10000068FFF799F8002384F820306360F8BD60
:102A20007C0800201003020000E100E001F0604398
:102A3000B3F1005F2CD1F0B50679234F4FEAC60CF5
:102A40000CEB060407EB840483B0636913BBA1603D
:102A500062610568C5F82031D5F820E10568CDF838
:102A600004E0DDF804E0C5F85831D5F858E1056810
:102A7000CDF800E0DDF800E0C5F84415C5F84825BC
:102A800002680121916062683AB1184603B0F0BD56
:102A900010207047112003B0F0BD036800E08AB930
:102AA000D3F82011D3F858210029F8D0002A14BFF8
:102AB0000F2000200CEB060307EB830300225A6172
:102AC00003B0F0BD0F20F5E77C080020704700BF81
:102AD000037803B170472DE9F041052106464068AF
:102AE000FFF700FA00BB124B124DDFF85480124979
:102AF000D8F80020114FED1AED082D0445F003051C
:102B00002846FDF76FFF0024736839461A5F284690
:102B10000234FDF767FF0A2CF6D1D8F800300133F4
:102B2000C8F80030BDE8F081FEF77EF9DBE700BFB2
:102B3000AC340000DC3400007C330000943300002F
:102B4000A008002010B584B0FEF7F0FE002831D1B7
:102B500004A91A4B41F8083D194A1A480023039367
:102B6000FFF722FA18BB184B184AD3F8103515484E
:102B70000021DBB2DA4000910123FFF7A1FA1148EE
:102B8000FFF790FAFFF79EF904461148FEF74CFF55
:102B900050B90F4B0F4918782246FEF777FF08B15E
:102BA000FEF742F904B010BDFEF73EF9F1E7FEF77B
:102BB0003BF9D8E7FEF738F9CAE700BF0000030683
:102BC000CD2A0000503300000080004000A86100C2
:102BD000B80800204081004008B5054B1878FEF782
:102BE0007BFF00B908BDBDE80840FEF71DB900BF76
:102BF000B808002000B5144B93E8070085B001AB7E
:102C000003C3124912481A70FFF7A2F8C8B901A904
:102C10000020FFF7EBF888B905210E48FFF762F9AD
:102C200048B905210C48FFF75DF908B1FEF7FCF83B
:102C300005B05DF804FBFEF7F7F8F2E7FEF7F4F8ED
:102C4000EAE7FEF7F1F8E2E740330000D12A00009E
:102C50004C330000A4080020AE080020002108B575
:102C60000846FDF7BBFC08B1FEF7DEF8FDF73CFCBB
:102C7000FEF714FE08B1FEF7D7F8FFF7BBFFFFF72A
:102C800061FFFFF7A9FF0848084B0949C01AC008AF
:102C9000000440F00300FDF701FDFEF715FEFDF70F
:102CA00019FF0028FBD1F8E7DC340000AC34000049
:102CB0005833000030B4904B1B78062B20D08F4B3C
:102CC0001B68062B00F085808D4AD2F8883043F4CB
:102CD0007003C2F88830BFF34F8FBFF36F8F4FF090
:102CE0001023D3F80022002AC0F28681D3F80432E0
:102CF000002BC0F28181834B834A1A6030BC70473D
:102D0000824B1B681D07DAD1814B1B6803F0F00270
:102D1000302A00F09E8003F0E003402B00F0998001
:102D20007B4B1B6803F0F003302B00F0B980784B2D
:102D30001B6803F0F002302A56D003F0E003402B6A
:102D400052D0734B1B6803F0F003302B00F0B680B9
:102D50006F4B1B6803F0F002302A66D003F0E003EB
:102D6000402B62D06A4B1B6803F0F003302B00F05D
:102D7000B580674B1B6803F0F003302B79D0644BB0
:102D80001B6803F0F003502B00F0E480604B1B68DD
:102D900003F0F002302A37D003F0E003402B33D0A9
:102DA0005B4B1B6803F0F002302A03D003F0E00312
:102DB000402B84D14FF08043D3F80024D20744BF86
:102DC0006FF00102C3F800244C4B1B68062B7FF404
:102DD0007BAF504B1B68062B7FF476AF4E4A1368CF
:102DE00043F4806313606FE74C4B434A1B681278CF
:102DF0004B49C3F34233062A0B6048D1434B1B684F
:102E000019077FF45CAF9CE7464A3B4B12681B787E
:102E1000454902F04F02062B0A607FF450AF3B4B4E
:102E20001B6819077FF44BAFBAE74FF080430022CD
:102E3000C3F80C21C3F81021C3F838252E4B1B789A
:102E4000062B7FF43CAF314B1B681B077FF437AF79
:102E500088E7364B284A1B6812783549C3F30423A8
:102E6000062A0B60EAD1294B1B681C077FF427AFA9
:102E700056E7304C204A304912783048304B05250F
:102E8000256001250D6000243F2104601960062A99
:102E90007FF415AF1D4B1B681C077FF410AF6EE766
:102EA000154B284A1B7828491160062B7FF407AF81
:102EB000164B1B6818077FF402AF38E723490E4B07
:102EC000CA681B7822F08072062BCA607FF4F7AEC6
:102ED0000E4B1B681A077FF4F2AE39E7064B1C4A0B
:102EE0001B780321062B11607FF4E9AE074B1B68AA
:102EF0001D077FF4E4AE3CE7E00F00F03001001066
:102F000000ED00E01C0000200090D003E40F00F072
:102F1000E80F00F0340100103C170040440200109C
:102F20003C05004058020010E40E0040240300104D
:102F30004035014010560040885600401856004069
:102F40001456004074C007400DF0ADBAF0ED00E03B
:102F5000A00500404FF08053404AD3F80414C2F853
:102F60002015D3F80814C2F82415D3F80C14C2F8AD
:102F70002815D3F81014C2F82C15D3F81414C2F87D
:102F80003015D3F81814C2F83415D3F81C14C2F84D
:102F90004015D3F82014C2F84415D3F82414C2F80D
:102FA0004815D3F82814C2F84C15D3F82C14C2F8DD
:102FB0005015D3F83014C2F85415D3F83414C2F8AD
:102FC0006015D3F83814C2F86415D3F83C14C2F86D
:102FD0006815D3F840142248C2F86C15D3F844148D
:102FE0000378C2F87015062B7FF469AE1D4B1B6881
:102FF00018077FF464AEC9E61B4B0122C3F8042511
:10300000D3F80024002AFBD04FF0102315221649D4
:10301000C3F80022D1F80034002BFBD04FF010226F
:103020001521114BC2F80412D3F80024002AFBD05A
:1030300000220D49C3F80425D1F80034002BFBD041
:10304000BFF34F8F09490A4BCA6802F4E062134389
:10305000CB60BFF34F8F00BFFDE700BF00C0004053
:10306000E00F00F0E40F00F000E0014000ED00E0B0
:103070000400FA0508B5074B044613B10021AFF36D
:103080000080054B1868836A03B19847204600F01A
:1030900071F800BF000000009833000070B50D4EBD
:1030A0000D4CA41BA4100025A54209D10B4E0C4CBD
:1030B00000F062F8A41BA4100025A54205D170BD44
:1030C00056F8253098470135EEE756F825309847F1
:1030D0000135F2E7F0010020F0010020F0010020AE
:1030E000F4010020044B054A1B681B6A002B08BF33
:1030F0001346D3F8EC007047200000208400002025
:1031000082B001B901A942B14BB113780B601278BA
:10311000101C18BF012002B070471046FBE76FF08B
:103120000100F8E710B5431E0A44914200D110BDDA
:1031300011F8014B03F8014FF7E7024403469342AD
:1031400000D1704703F8011BF9E7034613F8012B80
:10315000002AFBD1181A0138704749B1FF2A85BFF0
:103160008A2303600A704FF0FF3098BF0120704738
:1031700008467047FEE700BFF8B500BFF8BC08BCC2
:103180009E467047F8B500BFF8BC08BC9E46704725
:10319000FFFFFFFFFFFFFFFFFFFFFFFFFFFFFFFF3F
:1031A00000000000000000000000D6010601000041
:1031B000D503000041040000D10300007561727462
:1031C0005F6C6F675F6261636B656E640000000037
:1031D000500700207F000000D00700204261636B91
:1031E000656E647320666C7573686564000000002A
:1031F000617070004C3200007C3200002C32000004
:10320000843200008C320000943200009C320000B6
:10321000A4320000AC3200002025303278000000DB
:10322000202020007C000000256300001B5B313B58
:1032300033316D0025734C6F67732064726F70704B
:103240006564202825642925730D0A001B5B306DF9
:1032500000000000257300003C25733E2025733AD2
:10326000200000000D0A000000000000B432000041
:10327000BC320000C4320000CC3200001B5B313B8A
:1032800033306D001B5B313B33326D001B5B313BD8
:1032900033336D001B5B313B33346D001B5B313BC3
:1032A00033356D001B5B313B33366D001B5B313BAF
:1032B00033376D006572726F720000007761726E55
:1032C000696E6700696E666F000000006465627574
:1032D00067000000466174616C206572726F720055
:1032E00053797374656D2072657365740000000016
:1032F000303132333435363738394142434445462C
:10330000AC340000AC340000040000007077725F41
:103310006D676D740000000050504900505253001A
:10332000534141444300000054494D4552000000C0
:1033300055415254000000005541525445000000D0
:103340000000000002000001000000000100060073
:1033500000800040000400005341414443204841A4
:103360004C2073696D706C65206578616D706C655B
:1033700020737461727465642E0000004144432020
:103380006576656E74206E756D6265723A2025648F
:103390000000000025640000240000204300504F7E
:1033A000534958002E0000202020202020202020DB
:1033B00028282828282020202020202020202020E5
:1033C0002020202020202088101010101010101015
:1033D0001010101010101004040404040404040459
:1033E00004101010101010104141414141410101E1
:1033F00001010101010101010101010101010101BD
:1034000001011010101010104242424242420202CA
:10341000020202020202020202020202020202028C
:103420000202101010102000000000000000000038
:10343000000000000000000000000000000000008C
:10344000000000000000000000000000000000007C
:10345000000000000000000000000000000000006C
:10346000000000000000000000000000000000005C
:10347000000000000000000000000000000000004C
:10348000000000000000000000000000000000003C
:10349000000000000000000000000000000000002C
:0C34A00000000000000000000000000020
:1034AC0018330000000000001C3300000000000076
:1034BC002033000000000000283300000000000052
:1034CC003033000000000000383300000000000022
:1034DC00F0310000000003030C330000000000007A
:1034EC00B031000000000000BC31000014000020CE
:1034FC005C020020240300202C0300206402002026
:04350C0018000000A3
:0835100030CDFF7F0100000037
:1035180000000000002000400000000000200040E3
:103528000000000000000000FF0000000090D00331
:10353800240000200000000000000000000000003F
:103548000000000000000000000000000000000073
:103558000000000000000000000000000000000063
:103568000000000000000000000000000000000053
:103578000000000000000000000000000000000043
:103588000000000000000000000000000000000033
:1035980000000000430000000000000000000000E0
:1035A8000000000000000000000000000000000013
:1035B80000000000430000000000000000000000C0
:1035C80000000000000000000000000000000000F3
:1035D80000000000430000000000000000000000A0
:1035E80000000000000000000000000000000000D3
:1035F8000000000043000000000000000000000080
:1036080000000000000000000000000000000000B2
:10361800000000004300000000000000000000005F
:103628000000000000000000000000000000000092
:10363800000000004300000000000000000000003F
:103648000000000000000000000000000000000072
:10365800000000004300000000000000000000001F
:103668000000000000000000000000000000000052
:10367800000000005B310000013100000000000084
:10368800A6330000A4330000A5330000A5330000D2
:10369800A5330000A5330000A5330000A5330000C2
:1036A800A5330000A5330000A5330000FFFFFFFF8E
:1036B800FFFFFFFFFFFFFFFFFFFF00000100415377
:1036C800434949000000000000000000000000001D
:1036D800000000000000000000000000000041534E
:1036E80043494900000000000000000000000000FD
:1036F80000000000000000000000000000000000C2
:0837080025020000010200008F
:04000003000002B542
:00000001FF
